:100000000C9468000C9490000C9490000C94900058
:100010000C9490000C9490000C9490000C94900020
:100020000C9490000C9469050C9490000C94900032
:100030000C9490000C94AF0B0C9490000C949000D6
:100040000C946D0C0C9490000C94190D0C94900071
:100050000C9490000C9490000C9490000C949000E0
:100060000C940D030C9490008509FB097C09FB0995
:10007000FB09FB097709FB096B09FB096409FB090B
:100080006709FB09FB09FB09E509FB09C309FB0932
:10009000C009FB09B409FB09FB09FB09FB09FB09C2
:1000A000AC09FB09A909FB09FB09FB09FB09FB09D1
:1000B000AE09FB09A109FB098809FB09FB09FB093A
:1000C000FB09FB095A095A095C092C02AD079E0E6F
:1000D00011241FBECFEFD4E0DEBFCDBF11E0A0E002
:1000E000B1E0EAE5FFE102C005900D92A031B10751
:1000F000D9F712E0A0E1B1E001C01D92A434B1072C
:10010000E1F710E0C0EDD0E004C02297FE010E94AC
:10011000A70FCA3CD107C9F70E94D80E0C94AB0FA9
:100120000C9400000F931F93CF93DF93689F80017F
:10013000699F100D789F100D1124C8010E94AE0018
:10014000EC01009729F060E070E0A8010E94B00186
:10015000CE01DF91CF911F910F910895CF93DF933F
:10016000BC018230910510F462E070E0A09142027F
:10017000B0914302ED01E0E0F0E040E050E021C04A
:10018000888199818617970769F48A819B813097C6
:1001900019F09383828304C09093430280934202B8
:1001A000FE0134C06817790738F44115510519F07C
:1001B0008417950708F4AC01FE018A819B819C019C
:1001C000E9012097E9F641155105A9F1CA01861BFD
:1001D000970B049708F4BA01E0E0F0E02AC08D9193
:1001E0009C91119784179507F9F46417750781F4AA
:1001F00012968D919C911397309719F09383828377
:1002000004C09093430280934202FD0132964CC099
:10021000CA01861B970BFD01E80FF91F61937193CB
:1002200002978D939C9340C0FD01828193819C0134
:10023000D9011097A1F68091400290914102892B3B
:1002400041F48091020190910301909341028093C7
:10025000400240910401509105014115510541F4BE
:100260004DB75EB78091000190910101481B590B79
:100270002091400230914102CA01821B930B8617E4
:10028000970780F0AB014E5F5F4F8417950750F0E2
:10029000420F531F5093410240934002F901619372
:1002A000719302C0E0E0F0E0CF01DF91CF910895BB
:1002B000CF93DF93009709F450C0EC0122971B8283
:1002C0001A82A0914202B0914302109709F140E0D6
:1002D00050E0AC17BD0708F1BB83AA83FE01219152
:1002E0003191E20FF31FAE17BF0779F48D919C9106
:1002F0001197280F391F2E5F3F4F3983288312969D
:100300008D919C9113979B838A834115510571F4BC
:10031000D0934302C093420220C012968D919C91CB
:100320001397AD01009711F0DC01D3CFFA01D3830D
:10033000C28321913191E20FF31FCE17DF0769F4D9
:1003400088819981280F391F2E5F3F4FFA01318331
:1003500020838A819B8193838283DF91CF9108954B
:10036000DC0101C06D9341505040E0F70895F999C8
:10037000FECF72BD61BDF89A80B50895F999FECFA0
:100380001FBA72BD61BD40BD0FB6F894FA9AF99AD2
:100390000FBE089581E080931A01609315011092B9
:1003A000180110921901089581E080931A01609359
:1003B00015011092180110921901089590911301DE
:1003C00080911401981710F080E00895E0911101D8
:1003D000F0911201E90FF11D80819F5F909313014D
:1003E00008959C0180911D0190911E01892B11F1AE
:1003F00090911301809114019817E0F090E00BC0E8
:10040000E0911101F0911201EA0FFB1FA20FB31F3F
:100410008C9180839F5FA92FB0E0A617B70784F364
:100420001092130160931401E0911D01F0911E01DF
:10043000CB0109950895E0911B01F0911C013097C3
:1004400029F01092180110921901099508957093DE
:100450001E0160931D0108950895DF93CF930F92BD
:10046000CDB7DEB7698380911A018823A9F0809106
:1004700019018032B0F480911801E0911601F091D9
:100480001701E80FF11D6083809118018F5F809341
:1004900018018093190105C0CE01019661E00E9408
:1004A000E6020F90CF91DF9108950E942D020895EA
:1004B0006091160170911701809115014091190109
:1004C00021E00E94A10210921801109219011092CD
:1004D0001A01089580E290E061E070E00E949200CD
:1004E0008093110190931201109213011092140144
:1004F00080E290E061E070E00E949200809316013B
:100500009093170110921801109219010E948F0404
:1005100008950F931F938C01862F0E949D028BE1FB
:1005200092E00E94080381EF91E00E940303C8015A
:100530000E946A021F910F910895880F8093BA005C
:1005400008951F93582F122F413210F081E03CC0C4
:10055000809120018823E1F782E0809320018FEFD2
:10056000809331011092280140932901A091260126
:10057000B0912701FB0102C081918D938E2F861BC4
:100580008417D0F3852F90E0880F991F8093210165
:1005900085EE8093BC00112321F0809120018230F0
:1005A000E1F3809131018F3F11F480E00DC0809123
:1005B0003101803211F482E007C080913101803333
:1005C00011F084E001C083E01F910895482F61324B
:1005D00010F081E0089580912001843011F082E0D4
:1005E000089560932D01A0912A01B0912B01842FD1
:1005F0009C01F90102C081918D938E2F841B861777
:10060000D0F380E00895909325018093240108950C
:10061000909323018093220108951F920F920FB6A9
:100620000F9211242F933F934F935F936F937F9378
:100630008F939F93AF93BF93EF93FF938091B900F4
:1006400090E0887F90708036910509F4E2C0813691
:100650009105CCF58832910509F47BC0893291056A
:10066000B4F48031910509F46FC0813191053CF4F7
:10067000009709F438C1089709F040C165C0883176
:10068000910509F466C0809709F038C17FC08034B5
:10069000910509F4A3C08134910544F48033910598
:1006A00009F47FC0C89709F029C186C0803591053B
:1006B00009F486C08835910509F495C08834910500
:1006C00009F01CC19EC08839910509F404C189391B
:1006D0009105ECF48837910509F49BC089379105A1
:1006E0004CF48836910509F494C08037910509F0DF
:1006F00005C18FC08838910509F4EDC08039910596
:1007000009F48DC08038910509F0F8C088C0803B9D
:10071000910509F4B2C0813B91054CF4803A9105F2
:1007200009F491C0883A910509F0E8C0A6C0803C60
:10073000910509F4D4C0883C910509F4D0C0883BE8
:10074000910509F0DBC0B1C0809121018093BB000D
:10075000C0C09091280180912901981778F4909158
:100760002801E0912601F0912701E90FF11D808118
:100770008093BB009F5F90932801ABC085ED809371
:10078000BC008091BC0084FDFCCFB6C080E28093A9
:10079000310185ED8093BC008091BC0084FDFCCFCD
:1007A000ABC080E38093310185ED8093BC008091E4
:1007B000BC0084FDFCCFA0C088E3809331018FC0D2
:1007C000809128019091BB00E0912601F0912701D2
:1007D000E80FF11D90838F5F80932801909128018D
:1007E0008091290174C0809128019091BB00E09113
:1007F0002601F0912701E80FF11D90838F5F809310
:10080000280185ED8093BC008091BC0084FDFCCF65
:1008100073C083E080932001109230015AC0809110
:100820003001803208F057C0809130019091BB00B8
:10083000E0912E01F0912F01E80FF11D90838F5F61
:100840008093300146C080913001803248F480911D
:100850003001E0912E01F0912F01E80FF11D10827F
:1008600060913001E0912401F091250180912E01E9
:1008700090912F0170E0099532C084E080932001AF
:1008800010922C0110922D01E0912201F091230190
:10089000099580912D01882341F481E080932D01F9
:1008A000E0912A01F0912B01108290912C01E091AE
:1008B0002A01F0912B01E90FF11D80818093BB008B
:1008C0009F5F90932C0190912C0180912D0198179E
:1008D00010F485EC01C085E88093BC000FC085EC66
:1008E0008093BC0009C01092310185ED8093BC005B
:1008F0008091BC0084FDFCCF10922001FF91EF910C
:10090000BF91AF919F918F917F916F915F914F9127
:100910003F912F910F900FBE0F901F90189510923E
:100920002001449A459AE9EBF0E080818E7F808334
:1009300080818D7F808388E48093B80085E48093F4
:10094000BC0080E290E061E070E00E949200809341
:1009500026019093270180E290E061E070E00E9420
:10096000920080932A0190932B0180E290E061E055
:1009700070E00E94920080932E0190932F010895C1
:100980000F931F938B019C01809170008E7F809349
:1009900070008091B0008C7F8093B0008091B10096
:1009A000877F8093B1008091B6008F7D8093B600E1
:1009B000809170008D7F809370008091B100846081
:1009C0008093B1008091B1008C7F8093B10086E06C
:1009D00090E090933E0180933D01011511052105A2
:1009E000310569F481E090E0A0E0B0E0809332014D
:1009F00090933301A0933401B093350108C0009364
:100A00003201109333012093340130933501509318
:100A10003701409336011F910F91089510923801CC
:100A20001092390110923A0110923B0110923C0150
:100A300080913D0190913E018093B200E0E7F0E0AB
:100A40008081816080830895E0E7F0E080818E7F7F
:100A5000808308958091380190913901A0913A01E5
:100A6000B0913B010196A11DB11D80933801909377
:100A70003901A0933A01B0933B01209138013091A4
:100A8000390140913A0150913B018091320190919E
:100A90003301A0913401B0913501281739074A0775
:100AA0005B07B0F080913C01882391F481E0809352
:100AB0003C01109238011092390110923A011092C3
:100AC0003B01E0913601F0913701099510923C010C
:100AD00008951F920F920FB60F9211242F933F93F8
:100AE0004F935F936F937F938F939F93AF93BF9336
:100AF000EF93FF9380913D0190913E018093B2006E
:100B00000E942A05FF91EF91BF91AF919F918F9124
:100B10007F916F915F914F913F912F910F900FBEF9
:100B20000F901F901895FC017583648308951F939F
:100B3000CF93DF93EC01888599850E943F08682F49
:100B40008FE191E00E94CA0110E00AC0E885F985B2
:100B5000E10FF11D8FE191E060810E942D021F5F86
:100B6000888599850E946B08181780F38FE191E0C2
:100B70000E945802DF91CF911F910895FF920F9329
:100B80001F93CF93DF93EC01162F042FF22E888151
:100B90008823C9F08DE292E00E948B0E8DE292E0F4
:100BA00060E00E948B0E8DE292E0602F0E948B0E1F
:100BB0008DE292E061E00E948B0E8DE292E06F2D5B
:100BC0000E948B0E24C08FE191E067E070E00E94EC
:100BD000D4018FE191E0612F0E942D026A818FE1A3
:100BE00091E00E942D028FE191E0602F0E942D0282
:100BF0008FE191E061E070E00E9455028FE191E0A9
:100C00006F2D0E942D028FE191E00E945802DF912A
:100C1000CF911F910F91FF900895362F242F6FE0F1
:100C2000432F0E94BE050895362F242F6FEF432FC8
:100C30000E94BE050895CF93DF93EC018B8188233A
:100C4000E9F089818F5F89836B818FE191E00E9458
:100C5000CA018FE191E06AE270E00E9455028FE1E3
:100C600091E069810E942D028FE191E00E9458027B
:100C7000CE016AEC49810E9414061B82DF91CF915C
:100C80000895CF93DF93EC018E819F810E94260807
:100C9000882319F1888599852E813F813987288796
:100CA0009F838E830E9421088881882389F088850C
:100CB00099850E943F089A81981750F4CE010E94AE
:100CC000970501C00995888599850E94210805C06E
:100CD000EC81FD813097B1F7F6CFDF91CF91089588
:100CE000CF93DF93EC010E941B068DE292E00E94FD
:100CF0004F0E882349F08DE292E00E94630E682F28
:100D00008E819F810E940508CE010E944106DF91DD
:100D1000CF910895CF93DF93EC016A83442331F0A0
:100D20006A818FE191E00E94890204C08A81880F64
:100D30008093BA008FE191E062EB77E00E94270296
:100D400018824A8180E191E060E070E00E94BE017B
:100D5000DF91CF9108951F93CF93DF93EC01142F70
:100D60006A838DE292E040E051EE60E070E00E9424
:100D7000560D112331F06A818FE191E00E948902C2
:100D800004C08A81880F8093BA008FE191E068ECFB
:100D900077E00E94270281E088834A8180E191E028
:100DA00060E070E00E94BE01CAE0D0E08FE191E017
:100DB000BE010E94D4018FE191E06FEF70E00E94CC
:100DC00055028FE191E0BE010E9455028FE191E052
:100DD0006EEF70E00E9455028FE191E060E070E0FC
:100DE0000E9455028FE191E00E9458022196CA327A
:100DF000D105E1F6DF91CF911F910895DF92EF9237
:100E0000FF920F931F93CF93DF93EC01062F18826D
:100E10001A8280E191E060E070E00E94B701182F33
:100E20001F70183060F06AEF169FB0011124665DE4
:100E30007640882777FD8095982F0E94B50C105C2E
:100E40001A831054002331F06A818FE191E00E94EF
:100E5000890204C08A81880F8093BA008FE191E0F3
:100E600063EF77E00E942702812F90E088309105A0
:100E70001CF42EE130E00CC09C0155E0220F331F22
:100E80005A95E1F7880F991F281B390B225D3040D6
:100E900083E0D82E79010027F7FC0095102F8A8176
:100EA000803448F1DD2039F18FE191E067E070E0B6
:100EB0000E94D4018FE191E067E170E00E94550249
:100EC0006A818FE191E00E942D028FE191E00E9402
:100ED0005802C801B7010E94B50CDA94E0CF6A81CC
:100EE000CE0140E00E948A060AC0CE0167E040E0E1
:100EF0000E94AB0604C08A818034B8F7F0CFDF913E
:100F0000CF911F910F91FF90EF90DF900895CF92B6
:100F1000DF92EF92FF920F931F938C017AE0C72E1E
:100F2000D12CC80ED91EC6010E9400086CE2E62E24
:100F3000F12CE00EF11EC7010E940008F801138297
:100F40008AE08183D782C682F186E0861F910F9165
:100F5000FF90EF90DF90CF9008958FE391E00E9493
:100F600087070895CF93DF93EC010CC08FE191E0E8
:100F70000E94DE01682F80914501909146010E94F8
:100F8000050821971C161D068CF3DF91CF9108955B
:100F9000CF93DF93EC018FE191E00E94DE01682F97
:100FA000873161F48FE191E00E94DE01982F8091FA
:100FB00042018823A9F49093420112C08DE292E08D
:100FC0000E948B0E0AC08FE191E00E94DE01682F23
:100FD0008DE292E00E948B0E2197C230D1059CF7E2
:100FE000DF91CF9108958FE191E00E94DE018A3276
:100FF00031F48FE191E00E94DE0180934101089578
:10100000FC0110A211A213820895DC0190969C911C
:10101000909713968C9113978C5F981789F099236A
:1010200041F46F3F31F06E3F21F06F3011F06130CD
:1010300039F4FD01E90FF11D60839F5F90969C9349
:101040000895FC0110A211A213820895FC0120E072
:1010500083818C5F90A1981709F421E0822F089575
:10106000FC0183818C5F90A1981711F080E001C092
:10107000808190E08E3F09F491E0892F0895FC0172
:1010800083818C5F90A1981711F080E00895818191
:101090000895FC0183818C5F90A1981711F080E086
:1010A000089582810895DC0113968C9113978C5FCB
:1010B00090969C919097981711F090E00AC09196A5
:1010C0008C919197FD01E80FF11D94818F5F9196AE
:1010D0008C93892F0895FC0183818C5F0895AF92D2
:1010E000BF92DF92EF92FF920F931F93CF93DF9304
:1010F00080E191E06AE070E00E94B70140E0282FB3
:10110000342F59018BE0A816B10418F09AE0A92EEB
:10111000B12C8BE0E82EF12C00E010E019C0E701C3
:10112000DD24BE01219680E191E00E94B701282FC5
:1011300082E991E0602F4D2D0E945E0AD39498E1E0
:10114000D91679F788E190E0E80EF91E0F5F1F4F7E
:101150000A151B0520F3DF91CF911F910F91FF908E
:10116000EF90DF90BF90AF9008958F929F92BF92C3
:10117000CF92DF92EF92FF920F931F93CF93DF9363
:1011800082E991E00E94480A482F882E992480E144
:1011900091E06AE070E00E94BE012BE0C22ED12CEB
:1011A000EE24FF241CC0E60100E01C2FBD2E21967A
:1011B00082E991E06E2D402F0E947F0A482F80E146
:1011C00091E0612F7B2D0E94BE010F5F083169F70E
:1011D00088E190E0C80ED91E0894E11CF11CE814C7
:1011E000F90408F3DF91CF911F910F91FF90EF90D9
:1011F000DF90CF90BF909F908F900895EF92FF92D5
:101200000F931F937B018C0124E630E040E050E017
:101210000E94160F60938E0170938F01809390014E
:101220009093910143E259E00E94C004E0928E0144
:10123000F0928F0100939001109391011F910F91F3
:10124000FF90EF90089582E991E00E94540A08957A
:1012500010928D010E942405089581E080938D01F4
:101260000E940E0508950E94280982E991E00E94DB
:10127000400A6AE070E080E090E00E94FE08089575
:10128000FF920F931F9380914701909148010E9414
:101290004908F82E90E0FC01EE5CF040E133F105E6
:1012A00008F0A9C0EC5CFF4FEE0FFF1F0590F49112
:1012B000E02D099412E0A0C08FE391E060E00E946D
:1012C000FE060E94330997C010928D0194C081E000
:1012D00080938D0190C080914701909148010E94B8
:1012E0005308682F82E991E00E944B0A84C082E98A
:1012F00091E00E94510A36C08091470190914801C7
:101300000E9453088093940176C01091940174C098
:1013100080914701909148010E945308082F10E0E6
:1013200080914701909148010E945308282F82E93B
:1013300091E0602F412F0E945E0A1F5F183181F7F4
:101340005AC080914701909148010E94530818E1CA
:1013500053C00E94B5084FC00E946F0882E991E017
:101360000E94480A182F48C0809147019091480177
:101370000E94530890E0A0E0B0E0BC01CD0139C06C
:1013800010918E0139C080918E0190918F01A091B2
:101390009001B091910185369105A105B10564F0E8
:1013A00084569040A040B04080938E0190938F016E
:1013B000A0939001B093910160918E0170918F0183
:1013C000809190019091910114C060918E01709173
:1013D0008F0180919001909191016C597F4F8F4FB7
:1013E0009F4F60938E0170938F0180939001909333
:1013F00091010E94FE0810E0809147019091480100
:101400000E943008882331F08FE391E06F2D412F47
:101410000E940D061F910F91FF9008958FE391E0B8
:101420000E9470060895EF920F931F9302E911E056
:10143000C8010E947C0B80E191E060E070E00E94B6
:10144000B701382F3F70C80160E041E0232F032F20
:10145000E32E0E949A0A0FE311E0C80161E00E94A6
:10146000FE06C80160E479E00E9493050E943309FA
:101470000E946F080E942D091F910F91EF9008950F
:10148000FC0181E082831482178210868383089591
:10149000FC0183810895FC018381681708F464834B
:1014A0000895FC0184810895FC0184818F5F848309
:1014B00094818381981708F014820895DC01522FDB
:1014C0006A30E0F4262F30E0C901880F991F820F9F
:1014D000931F23E0880F991F2A95E1F7840F911D30
:1014E000ED91FC911197E80FF91F508313968C91A1
:1014F0001397681718F06F5F13966C930895FC01AB
:101500008381681710F080E00895862F90E09C0199
:10151000220F331F280F391FA3E0220F331FAA9574
:10152000E1F7240F311D0190F081E02DE20FF31F50
:1015300080810895EF920F93DC01522F6A3020F5DD
:1015400023E0429F9001112488E1689FC00111248B
:10155000280F391FED91FC911197E20FF31F508373
:10156000ED91FC911197E20FF31F0183ED91FC9136
:101570001197E20FF31FE28213968C91139768176D
:1015800018F06F5F13966C930F91EF90089580E0C1
:1015900070E060FF02C0409A01C040984198419AB3
:1015A0008F5F883019F075956795F2CF0895633095
:1015B00078F483B124E030E002C0359527956A9530
:1015C000E2F7887F822B85B989B187708BB908953E
:1015D00083B1887F85B949B1862F90E0039720E8D1
:1015E00030E002C0359527958A95E2F74770422B87
:1015F0004BB90895DF92EF92FF920F931F93CF9311
:10160000DF93EC01142FF22ED02E0E2D439A0E9460
:10161000D70A429A8885811708F000E0CE01602F32
:101620000E94C70A8885811708F0FF24CE016F2D1C
:101630000E94C70A8885811708F0DD24CE016D2D30
:101640000E94C70A42984398DF91CF911F910F9152
:10165000FF90EF90DF900895EF920F93CF93DF9379
:10166000EC018B818823F1F18C813F8128E1829FFD
:10167000C0011124830F911D9E838D838F814A8128
:101680006D817E81A881B981FD01E60FF71F208160
:101690006F5F7F4F7E836D836D817E81FD01E60FDD
:1016A000F71F00816F5F7F4F7E836D83ED81FE8129
:1016B00063E00E94350F682FAE0FBF1FCE01EC9084
:1016C0000E94FA0A8F81873150F01F8288858F30FF
:1016D00010F080E002C088858F5F888703C08F810B
:1016E0008D5F8F83DF91CF910F91EF90089582E905
:1016F00091E00E942C0B0895EF92FF920F931F939D
:101700008C012BE9E22E21E0F22EC70148E650E0E1
:1017100060E070E00E94450CC70167E77BE02FEFB7
:101720003FEF4FEF5FEF0E944D0C8FEF8AB987B903
:1017300084B915B81BB880EF90E061E070E00E94BA
:101740009200F8018083918381E082831482178262
:10175000108683831F910F91FF90EF9008951F9241
:101760000F920FB60F9211242F933F934F935F93D5
:101770006F937F938F939F93AF93BF93EF93FF9359
:10178000E0919E01F0919F010995FF91EF91BF912A
:10179000AF919F918F917F916F915F914F913F9109
:1017A0002F910F900FBE0F901F901895FC01A3E092
:1017B000440F551F661F771FAA95D1F7403080E070
:1017C000580781E0680780E0780714F481E010C0D2
:1017D00033E075956795579547953A95D1F7403021
:1017E00080E0580781E0680780E078071CF482E019
:1017F000828339C023E075956795579547952A955B
:10180000D1F7403080E0580781E0680780E0780732
:1018100014F483E0EDCF92E0759567955795479561
:101820009A95D1F7403080E0580781E0680780E062
:10183000780714F484E0DCCF82E0759567955795BE
:1018400047958A95D1F7403080E0580781E06807D6
:1018500080E0780714F485E0CBCF85E082834FEFFA
:101860005FEF60E070E051834083509387004093C6
:10187000860080918100887F809381008091810023
:101880009281892B8093810008951092800020E13D
:10189000209381000E94D60B08950F931F93CF933E
:1018A000DF93EC018B01121613061406150624F4BF
:1018B000BA01A9010E94D60B1C830B8381E080939F
:1018C0006F007894809181009A81892B80938100A8
:1018D000DF91CF911F910F9108951F920F920FB634
:1018E0000F9211242F933F938F939F93AF93BF93A6
:1018F0008091A4019091A501A091A601B091A701AA
:101900003091A8010196A11DB11D232F2D5F2D3708
:1019100020F02D570196A11DB11D2093A8018093A1
:10192000A4019093A501A093A601B093A701809173
:10193000A0019091A101A091A201B091A3010196F3
:10194000A11DB11D8093A0019093A101A093A201BC
:10195000B093A301BF91AF919F918F913F912F9130
:101960000F900FBE0F901F901895EF92FF920F935C
:101970001F937B018C018FB7F8944091A401509183
:10198000A5016091A6017091A7018FBF2FB7F894B0
:101990008091A4019091A501A091A601B091A70109
:1019A0002FBF841B950BA60BB70BE816F9060A0789
:1019B0001B0760F71F910F91FF90EF9008957894A7
:1019C00084B5826084BD84B5816084BD85B5826044
:1019D00085BD85B5816085BDEEE6F0E080818160E2
:1019E0008083E1E8F0E08081826080838081816093
:1019F0008083E0E8F0E0808181608083E1EBF0E0CB
:101A0000808184608083E0EBF0E08081816080836E
:101A1000EAE7F0E080818460808380818260808357
:101A20008081816080838081806880831092C10082
:101A300008951F920F920FB60F9211242F933F9388
:101A40004F935F936F937F938F939F93AF93BF93C6
:101A5000EF93FF934091C600E0912902F0912A0292
:101A6000CF01019660E870E00E94410F9C018091D7
:101A70002B0290912C022817390739F0E755FE4FB9
:101A8000408330932A0220932902FF91EF91BF9166
:101A9000AF919F918F917F916F915F914F913F9106
:101AA0002F910F900FBE0F901F9018955F926F921D
:101AB0007F928F929F92AF92BF92CF92DF92EF92DE
:101AC000FF920F931F93CF93DF93EC013A014B01E9
:101AD000413482E458078FE0680780E078070CF013
:101AE0007FC060E874E88EE190E0A40193010E9459
:101AF000760F2150304040405040CA01B90122E0E9
:101B000030E040E050E00E94760F59016A01A601E2
:101B10009501209530954095509594E0220F331F04
:101B2000441F551F9A95D1F760E074E284EF90E06E
:101B30000E94760FCA01B9012FEF30E040E050E07B
:101B40000E94160FA40193010E94760FC9018150D3
:101B50009F4F181619061CF4522E5A9403C0552490
:101B60005394521A60E079E08DE390E0A401930170
:101B70000E94760F2150304040405040CA01B901C8
:101B800022E030E040E050E00E94760F2095309552
:101B90004095509583E0220F331F441F551F8A95AF
:101BA000D1F760E074E284EF90E00E94760FCA0102
:101BB000B9012FEF30E040E050E00E94160FA40181
:101BC00093010E94760FC90181509F4F1816190684
:101BD0001CF4822F815002C081E0821B851500F524
:101BE000E885F98581E090E00A8802C0880F991F96
:101BF0000A94E2F7808360E079E08DE390E0A4014D
:101C000093010E94760F2150304040405040CA015D
:101C1000B90122E030E040E050E00E94760F04C0BD
:101C2000E885F98510829501EC81FD813083EE8194
:101C3000FF812083EA85FB85208141E050E0CA01D5
:101C40000E8402C0880F991F0A94E2F7282B208384
:101C5000EA85FB852081CA010F8402C0880F991F85
:101C60000A94E2F7282B2083EA85FB858081088887
:101C700002C0440F551F0A94E2F7842B8083DF9142
:101C8000CF911F910F91FF90EF90DF90CF90BF9079
:101C9000AF909F908F907F906F905F900895DC0140
:101CA0001296ED91FC911397E058FF4F819191911D
:101CB00080589F4F20813181821B930B60E870E038
:101CC0000E94410F0895CF93DF93DC011296ED91AE
:101CD000FC911397EF01CE57DF4F48815981E058AF
:101CE000FF4F80819181E058F0408417950719F4E7
:101CF0002FEF3FEF0CC0E40FF51F2081CA010196C2
:101D000060E870E00E94410F9983888330E0C90148
:101D1000DF91CF910895FC01A085B18521898C9137
:101D200090E0022E02C0959587950A94E2F780FF15
:101D3000F6CF0484F585E02D608308958AE091E074
:101D400090932E0280932D0289EA91E090933002C5
:101D500080932F0285EC90E09093320280933102C1
:101D600084EC90E0909334028093330280EC90E016
:101D7000909336028093350281EC90E09093380284
:101D80008093370286EC90E090933A028093390278
:101D900084E080933B0283E080933C0287E0809361
:101DA0003D0285E080933E0281E080933F020895EA
:101DB0000E94DF0C0E94130A0E940E0AFDCF0F93AF
:101DC0001F93CF93DF938C01EB0109C02196D801BB
:101DD000ED91FC910190F081E02DC8010995688199
:101DE0006623A1F7DF91CF911F910F910895EF9294
:101DF000FF920F931F93CF93DF938C017B01EA0136
:101E00000CC0D7016D917D01D801ED91FC9101903D
:101E1000F081E02DC80109952197209791F7DF9176
:101E2000CF911F910F91FF90EF900895629FD00185
:101E3000739FF001829FE00DF11D649FE00DF11D85
:101E4000929FF00D839FF00D749FF00D659FF00D34
:101E50009927729FB00DE11DF91F639FB00DE11D21
:101E6000F91FBD01CF0111240895991B79E004C029
:101E7000991F961708F0961B881F7A95C9F78095C9
:101E8000089597FB092E07260AD077FD04D049D084
:101E900006D000201AF4709561957F4F0895F6F7EB
:101EA000909581959F4F0895A1E21A2EAA1BBB1B06
:101EB000FD010DC0AA1FBB1FEE1FFF1FA217B30716
:101EC000E407F50720F0A21BB30BE40BF50B661F2C
:101ED000771F881F991F1A9469F7609570958095F0
:101EE00090959B01AC01BD01CF01089597FB092E90
:101EF00005260ED057FD04D0D7DF0AD0001C38F4D9
:101F000050954095309521953F4F4F4F5F4F089525
:101F1000F6F790958095709561957F4F8F4F9F4F05
:101F20000895AA1BBB1B51E107C0AA1FBB1FA61720
:101F3000B70710F0A61BB70B881F991F5A95A9F772
:101F400080959095BC01CD010895EE0FFF1F05907F
:0A1F5000F491E02D0994F894FFCFFE
:101F5A00200044020000000000008B0EDF0EF70E86
:00000001FF
