:100000000C9466000C948E000C948E000C948E0060
:100010000C948E000C948E000C948E000C948E0028
:100020000C948E000C944C010C948E000C948E0059
:100030000C948E000C940C050C948E000C948E0085
:100040000C94D3070C948E000C94CA050C948E006B
:100050000C948E000C948E000C948E000C948E00E8
:100060000C948E000C948E00CC026603C5026603CD
:1000700066036603BE026603B00266039D02660362
:10008000A6026603660366034B0366032603660344
:1000900024036603190366036603660366036603A7
:1000A0000E036603030366036603660366036603C3
:1000B000FC026603E5026603D0026603660366037C
:1000C000660366038D028D0290025B0711241FBE3A
:1000D000CFEFD4E0DEBFCDBF11E0A0E0B1E0E8EDAE
:1000E000F1E102C005900D92AA30B107D9F713E0F3
:1000F000AAE0B1E001C01D92A13CB107E1F710E018
:10010000CCECD0E004C02297FE010E94E608CA3C75
:10011000D107C9F70E9495070C94EA080C940000D7
:10012000F999FECF72BD61BDF89A80B50895F9992D
:10013000FECF1FBA72BD61BD40BD0FB6F894FA9AEA
:10014000F99A0FBE08950F931F938B019C01809124
:1001500070008E7F809370008091B0008C7F8093C0
:10016000B0008091B100877F8093B1008091B6008C
:100170008F7D8093B600809170008D7F809370009A
:100180008091B10084608093B1008091B1008C7F38
:100190008093B10086E090E0909317018093160160
:1001A000011511052105310569F481E090E0A0E019
:1001B000B0E080930B0190930C01A0930D01B093DC
:1001C0000E0108C000930B0110930C0120930D0148
:1001D00030930E015093100140930F011F910F9126
:1001E00008951092110110921201109213011092B1
:1001F00014011092150180911601909117018093BE
:10020000B200E0E7F0E08081816080830895E0E75C
:10021000F0E080818E7F808308958091110190911C
:100220001201A0911301B09114010196A11DB11DFD
:100230008093110190931201A0931301B0931401C4
:10024000209111013091120140911301509114013C
:1002500080910B0190910C01A0910D01B0910E01C4
:10026000281739074A075B07B0F0809115018823EA
:1002700091F481E080931501109211011092120106
:100280001092130110921401E0910F01F0911001EE
:1002900009951092150108951F920F920FB60F92B3
:1002A00011242F933F934F935F936F937F938F937B
:1002B0009F93AF93BF93EF93FF938091160190911B
:1002C00017018093B2000E940D01FF91EF91BF9141
:1002D000AF919F918F917F916F915F914F913F91DE
:1002E0002F910F900FBE0F901F901895AF92BF9255
:1002F000CF92DF92FF920F931F93CF93DF93BC01B6
:100300006C010894C11CD11C8AE091E00E9490000D
:10031000A82EBB2400E010E019C0E601FF24BE01B6
:1003200021968AE091E00E949000282F8DE191E0D3
:10033000602F4F2D0E94B303F39488E1F81679F7EC
:1003400088E190E0C80ED91E0F5F1F4F0A151B05EC
:1003500020F3DF91CF911F910F91FF90DF90CF900D
:10036000BF90AF9008958F929F92AF92BF92DF920D
:10037000EF92FF920F931F93CF93DF938C018DE148
:1003800091E00E948E03482F882E992458010894EA
:10039000A11CB11C8AE091E0B8010E949700EE24F4
:1003A000FF241DC0E501DD241C2F0D2F21968DE1BA
:1003B00091E06E2D4D2D0E94D003482F8AE091E0F0
:1003C000612F702F0E949700D39488E1D81661F7AF
:1003D00088E190E0A80EB91E0894E11CF11CE81415
:1003E000F90400F3DF91CF911F910F91FF90EF90EF
:1003F000DF90BF90AF909F908F900895EF92FF9203
:100400000F931F93182F062F85EAE82E83E0F82E0E
:10041000C7010E943C07C70161E00E944807C7016D
:10042000612F0E944807C701602F0E9448071F9153
:100430000F91FF90EF90089585EA93E00E941407D2
:10044000089585EA93E00E9400078823D1F30E9473
:100450001C020895EF92FF920F931F937B018C0172
:1004600024E630E040E050E00E9455086093190116
:1004700070931A0180931B0190931C014FE452E08A
:100480000E94A300E0921901F0921A0100931B014F
:1004900010931C011F910F91FF90EF9008958DE133
:1004A00091E00E94A4030895109218010E94070190
:1004B000089581E0809318010E94F10008950E9440
:1004C00054028DE191E00E9481036AE070E080E0D7
:1004D00090E00E942A0208950F931F9385EA93E00B
:1004E0000E940007882309F4F1C00E941C028F3F7C
:1004F00009F0ECC00E942102282F90E0FC01EE5C84
:10050000F040E133F10508F0E1C0EC5CFF4FEE0F85
:10051000FF1F0590F491E02D0994822F61E0D4C073
:1005200080E090E00E9476010E945F028DE191E000
:100530000E949F03682F8EEFC7C0109218018DE1B3
:1005400091E00E949F03682F88EDBEC081E08093F8
:1005500018018DE191E00E949F03682F8AEDB4C0DD
:100560000E942102682F8DE191E00E9493038DE1AA
:1005700091E00E949F03682F86EDA6C08DE191E077
:100580000E949F03682F84ED9FC00E942102682F64
:100590008093150380ED98C08EEC6091150394C094
:1005A0000E942102082F86EF68E10E94FE0110E000
:1005B0000E942102282F8DE191E0602F412F0E949F
:1005C000B3031F5F1831A1F781C00E942102082FD9
:1005D00084EF68E10E94FE0110E08DE191E0602F60
:1005E000412F0E94D003682F85EA93E00E944807BC
:1005F0001F5F183191F76AC08DE191E00E948E0370
:10060000682F82EF61C080E090E00E94B3018DE12D
:1006100091E00E948E03682F8CEE56C080E090E03F
:100620000E9476018DE191E00E948E03682F8AEE90
:100630004BC00E94210290E0A0E0B0E0BC01CD01DF
:100640000E942A0284EE3EC082EE3CC080911901D5
:1006500090911A01A0911B01B0911C018536910562
:10066000A105B10564F084569040A040B04080934D
:10067000190190931A01A0931B01B0931C01609182
:10068000190170911A0180911B0190911C010E9427
:100690002A0280EE17C06091190170911A018091B1
:1006A0001B0190911C016C597F4F8F4F9F4F60939E
:1006B000190170931A0180931B0190931C010E94F1
:1006C0002A028EED609119010E94FE011F910F9187
:1006D00008950E946C02089585EA93E040E051EE8F
:1006E00060E070E00E9407068DE191E00E94D50471
:1006F0000E945F0280E090E00E9476010E94590211
:100700000895FC01E850FE4F81E08083329610820C
:10071000339611921082359710820895FC01E750AC
:10072000FE4F80810895FC01E750FE4F8081E95F14
:10073000F140681718F4E650FE4F60830895FC01FD
:10074000E650FE4F80810895FC01DC01A650BE4FAB
:100750008C918F5F8C939C91E750FE4F808198170E
:1007600008F01C920895DC016531C8F4862F90E0F2
:10077000FC01EE0FFF1FE80FF91F83E0EE0FFF1FD4
:100780008A95E1F7E40FF11DEA0FFB1F2083FD01BD
:10079000E750FE4F8081681710F06F5F6083089507
:1007A000DC01A750BE4F8C91A95FB140681710F0D3
:1007B00080E00895862F90E0FC01EE0FFF1FE80F08
:1007C000F91F53E0EE0FFF1F5A95E1F7E40FF11DFB
:1007D000EA0FFB1F8081089580E070E060FF02C097
:1007E000409A01C040984198419A8F5F883019F033
:1007F00075956795F2CF0895633078F483B124E05E
:1008000030E002C0359527956A95E2F7887F822B04
:1008100085B989B187708BB9089583B1887F85B90F
:1008200049B1862F90E0039720E830E002C035956B
:1008300027958A95E2F74770422B4BB90895EF92BE
:10084000FF920F931F93CF93DF93EC01142FF22E9F
:10085000439A0E94FC03429AC250DE4F8881CE5FC9
:10086000D140811708F000E0CE01602F0E94EC0318
:10087000C250DE4F8881CE5FD140811708F0FF243F
:10088000CE016F2D0E94EC03C250DE4F8881CE5FF7
:10089000D140811708F0EE24CE016E2D0E94EC03AA
:1008A00042984398DF91CF911F910F91FF90EF9065
:1008B0000895CF92DF92EF920F93CF93DF93EC01E5
:1008C000C750DE4F8881C95FD140882309F461C0D9
:1008D000C650DE4F8881CA5FD140FDEFCF2EF1E0D8
:1008E000DF2ECC0EDD1EF601308128E1829FC00193
:1008F0001124830F911DDE01A550BE4F11969C93CC
:100900008E938081C850DE4F4881C85FD1406D9181
:100910007C911197FE01E60FF71F20816F5F7F4FDB
:1009200011967C936E936D917C911197FE01E60F69
:10093000F71F00816F5F7F4F11967C936E936D91CF
:100940007C911197FE01E60FF71FE0806F5F7F4FEC
:1009500011967C936E9363E00E947408682FCE0119
:100960000E941F04F6018081873178F01082FE0119
:10097000E250FE4F80818F3010F080E002C0808115
:100980008F5FC250DE4F888304C0F60180818D5F87
:100990008083DF91CF910F91EF90DF90CF900895FA
:1009A0008DE191E00E9459040895EF92FF920F9318
:1009B0001F938C01ACE1EA2EA3E0FA2EC70148E6B2
:1009C00050E060E070E00E94A205C70160ED74E0B5
:1009D0002FEF3FEF4FEF5FEF0E94AA058FEF8AB92D
:1009E00087B984B915B81BB808501E4F81E0F801CB
:1009F00080830E5F1F4FF80110820D5F1F4FF801BB
:100A000011928F01108205501040F80110821F9141
:100A10000F91FF90EF9008951F920F920FB60F92D3
:100A200011242F933F934F935F936F937F938F93F3
:100A30009F93AF93BF93EF93FF93E0911F03F091C8
:100A400020030995FF91EF91BF91AF919F918F91F5
:100A50007F916F915F914F913F912F910F900FBEBA
:100A60000F901F901895FC01A3E0440F551F661FBF
:100A7000771FAA95D1F7403080E0580781E06807DA
:100A800080E0780714F481E010C033E07595679535
:100A9000579547953A95D1F7403080E0580781E067
:100AA000680780E078071CF482E0828339C023E085
:100AB00075956795579547952A95D1F7403080E011
:100AC000580781E0680780E0780714F483E0EDCFF1
:100AD00092E075956795579547959A95D1F740306F
:100AE00080E0580781E0680780E0780714F484E02C
:100AF000DCCF82E075956795579547958A95D1F734
:100B0000403080E0580781E0680780E0780714F4FF
:100B100085E0CBCF85E082834FEF5FEF60E070E050
:100B200051834083509387004093860080918100D9
:100B3000887F80938100809181009281892B8093AE
:100B4000810008951092800020E1209381000E948E
:100B5000330508950F931F93CF93DF93EC018B011F
:100B6000121613061406150624F4BA01A9010E94F0
:100B700033051C830B8381E080936F007894809110
:100B800081009A81892B80938100DF91CF911F9101
:100B90000F9108951F920F920FB60F9211242F9369
:100BA0003F934F935F936F937F938F939F93AF93F5
:100BB000BF93EF93FF934091C600E091A103F091A2
:100BC000A203CF01019660E870E00E9480089C01BA
:100BD0008091A3039091A4032817390739F0EF5DA2
:100BE000FC4F40833093A2032093A103FF91EF9128
:100BF000BF91AF919F918F917F916F915F914F9135
:100C00003F912F910F900FBE0F901F9018955F92FC
:100C10006F927F928F929F92AF92BF92CF92DF920C
:100C2000EF92FF920F931F93CF93DF93EC013A0162
:100C30004B01413482E458078FE0680780E0780771
:100C40000CF07FC060E874E88EE190E0A4019301AD
:100C50000E94B5082150304040405040CA01B901BF
:100C600022E030E040E050E00E94B50859016A01FE
:100C7000A6019501209530954095509594E0220F5E
:100C8000331F441F551F9A95D1F760E074E284EF3B
:100C900090E00E94B508CA01B9012FEF30E040E0B2
:100CA00050E00E945508A40193010E94B508C901B3
:100CB00081509F4F181619061CF4522E5A9403C0E7
:100CC00055245394521A60E079E08DE390E0A4013A
:100CD00093010E94B5082150304040405040CA0165
:100CE000B90122E030E040E050E00E94B5082095D4
:100CF00030954095509583E0220F331F441F551FB8
:100D00008A95D1F760E074E284EF90E00E94B50824
:100D1000CA01B9012FEF30E040E050E00E945508D1
:100D2000A40193010E94B508C90181509F4F181674
:100D300019061CF4822F815002C081E0821B8515A8
:100D400000F5E885F98581E090E00A8802C0880F07
:100D5000991F0A94E2F7808360E079E08DE390E0E8
:100D6000A40193010E94B5082150304040405040FA
:100D7000CA01B90122E030E040E050E00E94B5082D
:100D800004C0E885F98510829501EC81FD813083EE
:100D9000EE81FF812083EA85FB85208141E050E0E0
:100DA000CA010E8402C0880F991F0A94E2F7282B0B
:100DB0002083EA85FB852081CA010F8402C0880F49
:100DC000991F0A94E2F7282B2083EA85FB8580810E
:100DD000088802C0440F551F0A94E2F7842B8083D1
:100DE000DF91CF911F910F91FF90EF90DF90CF9007
:100DF000BF90AF909F908F907F906F905F9008957D
:100E0000DC011296ED91FC911397E058FF4F819110
:100E1000919180589F4F20813181821B930B60E814
:100E200070E00E9480080895CF93DF93DC01129652
:100E3000ED91FC911397EF01CE57DF4F4881598117
:100E4000E058FF4F80819181E058F040841795076A
:100E500019F42FEF3FEF0CC0E40FF51F2081CA01FA
:100E6000019660E870E00E9480089983888330E0F2
:100E7000C901DF91CF910895DC011296ED91FC91AB
:100E80001397EE57FF4F808191819293829308953B
:100E9000FC01A085B18521898C9190E0022E02C0D1
:100EA000959587950A94E2F780FFF6CF0484F5853F
:100EB000E02D6083089584E091E09093A6038093F1
:100EC000A50381E293E09093A8038093A70385ECA8
:100ED00090E09093AA038093A90384EC90E0909310
:100EE000AC038093AB0380EC90E09093AE038093CF
:100EF000AD0381EC90E09093B0038093AF0386EC58
:100F000090E09093B2038093B10384E08093B303A5
:100F100083E08093B40387E08093B50385E08093FA
:100F2000B60381E08093B70308950E941B080E94D6
:100F30006C030E946903FDCF0F931F93CF93DF9340
:100F40008C01EB0109C02196D801ED91FC91019033
:100F5000F081E02DC801099568816623A1F7DF9132
:100F6000CF911F910F910895EF92FF920F931F93CE
:100F7000CF93DF938C017B01EA010CC0D7016D9107
:100F80007D01D801ED91FC910190F081E02DC80127
:100F900009952197209791F7DF91CF911F910F919C
:100FA000FF90EF9008951F920F920FB60F921124A9
:100FB0002F933F938F939F93AF93BF938091BC03E5
:100FC0009091BD03A091BE03B091BF033091C003C7
:100FD0000196A11DB11D232F2D5F2D3720F02D5718
:100FE0000196A11DB11D2093C0038093BC03909373
:100FF000BD03A093BE03B093BF038091B80390914B
:10100000B903A091BA03B091BB030196A11DB11D14
:101010008093B8039093B903A093BA03B093BB0332
:10102000BF91AF919F918F913F912F910F900FBEE4
:101030000F901F901895789484B5826084BD84B514
:10104000816084BD85B5826085BD85B5816085BDC3
:10105000EEE6F0E0808181608083E1E8F0E080816D
:1010600082608083808181608083E0E8F0E080811D
:1010700081608083E1EBF0E0808184608083E0EB3D
:10108000F0E0808181608083EAE7F0E08081846025
:101090008083808182608083808181608083808181
:1010A000806880831092C1000895629FD001739F71
:1010B000F001829FE00DF11D649FE00DF11D929FF4
:1010C000F00D839FF00D749FF00D659FF00D992733
:1010D000729FB00DE11DF91F639FB00DE11DF91F57
:1010E000BD01CF0111240895991B79E004C0991F17
:1010F000961708F0961B881F7A95C9F78095089572
:1011000097FB092E07260AD077FD04D049D006D0D8
:1011100000201AF4709561957F4F0895F6F7909529
:1011200081959F4F0895A1E21A2EAA1BBB1BFD01BA
:101130000DC0AA1FBB1FEE1FFF1FA217B307E407B6
:10114000F50720F0A21BB30BE40BF50B661F771F0E
:10115000881F991F1A9469F76095709580959095EE
:101160009B01AC01BD01CF01089597FB092E052617
:101170000ED057FD04D0D7DF0AD0001C38F45095AC
:101180004095309521953F4F4F4F5F4F0895F6F7AB
:1011900090958095709561957F4F8F4F9F4F0895E3
:1011A000AA1BBB1B51E107C0AA1FBB1FA617B7078D
:1011B00010F0A61BB70B881F991F5A95A9F78095A9
:1011C0009095BC01CD010895EE0FFF1F0590F4919D
:0811D000E02D0994F894FFCF13
:0A11D8000000000048079C07B40760
:00000001FF
